:020000040800F2
:1000000000300020612A00082B2A00082D2A000851
:100010002F2A0008312A0008332A000800000000B7
:10002000000000000000000000000000352A000869
:10003000372A000800000000392A00083B2A00087F
:10004000B12A0008B12A0008B12A0008B12A000824
:10005000B12A0008B12A0008F50A0008FF0A0008C2
:10006000090B0008130B00081D0B0008B12A00083B
:10007000B12A0008B12A0008B12A0008B12A0008F4
:10008000B12A0008B12A0008B12A0008B12A0008E4
:10009000ED080008B12A0008B12A0008270B000863
:1000A000B12A0008B12A0008B12A0008B12A0008C4
:1000B000B12A0008B12A000800000000B12A000897
:1000C000B12A00080000000000000000B12A00086A
:1000D00000000000B12A0008B12A0008B12A000877
:1000E0004D0B0008B12A00080000000000000000CD
:1000F0000000000000000000000000000000000000
:1001000000000000000000000000000000000000EF
:100110000000000000000000B12A0008B12A000819
:1001200000000000000000000000000000000000CF
:1001300000000000000000000000000000000000BF
:10014000B12A0008B12A000800000000B12A000806
:10015000B12A0008B12A0008B12A0008B12A000813
:10016000B12A0008B12A00080000000000000000C9
:10017000000000000000000000000000000000007F
:0801800000000000B12A000894
:10019000034613F8012B002AFBD1181A01387047C7
:1001A00010F8012B11F8013B012A28BF9A42F7D021
:1001B000D01A70470000000000000000000000009E
:1001C00001F0FF01102A2BDB10F0070F08D010F808
:1001D000013B013A8B422DD010F0070F42B3F6D10C
:1001E000F0B441EA012141EA014122F007047FF025
:1001F00000070023F0E80256083C85EA010586EA7C
:10020000010685FA47F5A3FA87F586FA47F6A5FAB7
:1002100087F68EB9EED1F0BC01F0FF0102F00702C3
:1002200032B110F8013B013A83EA010313B1F8D16E
:100230000020704701387047002D06BF354603384F
:10024000073815F0010F07D1013015F4807F02BF88
:10025000013015F4C03F0130F0BC0138704700BFD9
:1002600000F1340191E838009C46A6464CF8045D44
:1002700090E8FF0FE54600BD90EC210B704700BFF2
:1002800080EC210B704700BF90EC200B704700BF43
:1002900080EC200B704700BFD0EC200B704700BFF4
:1002A000C0EC200B704700BFF0EC0201F0EC021133
:1002B000F0EC0221F0EC0231F0EC0241F0EC0251E2
:1002C000F0EC0261F0EC0271F0EC0281F0EC0291D2
:1002D000F0EC02A1F0EC02B1F0EC02C1F0EC02D1C2
:1002E000F0EC02E1F0EC02F1704700BFE0EC02013B
:1002F000E0EC0211E0EC0221E0EC0231E0EC024122
:10030000E0EC0251E0EC0261E0EC0271E0EC028111
:10031000E0EC0291E0EC02A1E0EC02B1E0EC02C101
:10032000E0EC02D1E0EC02E1E0EC02F1704700BF4A
:10033000B0FC0181B0FC0191B0FC01A1B0FC01B1A5
:10034000704700BFA0FC0181A0FC0191A0FC01A1AD
:10035000A0FC01B1704700BFEC4600B52DE900508C
:100360002DE9FF1F4FF000032DE90C0001A903F058
:100370000DFFDDF840E012B0704700BFEC4600B55D
:100380002DE900502DE9FF1F4FF000032DE90C006F
:1003900001A903F037FFDDF840E012B0704700BF5D
:1003A000EC4600B52DE900502DE9FF1F4FF000038A
:1003B0002DE90C0001A903F045FFDDF840E012B083
:1003C000704700BFEC4600B52DE900502DE9FF1F36
:1003D0004FF000032DE90C0001AB03F00BFFDDF83B
:1003E00040E012B0704700BFEC4600B52DE9005068
:1003F0002DE9FF1F4FF000032DE90C0001AA03F0C7
:1004000077FFDDF840E012B0704700BF0348044BAF
:10041000834202D0034B03B11847704768000020A5
:1004200068000020000000000548064B1B1AD90F89
:1004300001EBA301491002D0034B03B118477047E9
:1004400068000020680000200000000010B5064C85
:10045000237843B9FFF7DAFF044B13B10448AFF335
:1004600000800123237010BD680000200000000000
:10047000904C000808B5054B1BB105490548AFF382
:100480000080BDE80840FFF7CFBF00BF00000000BC
:100490006C000020904C0008F8B506460D460B682D
:1004A0001B6A1949284698472B681C6A304600F099
:1004B00059FD024615492846A0472B681C6A30465C
:1004C00000F052FD024612492846A0472B681B6ADD
:1004D000104928469847304600F048FD074600245A
:1004E00006E02B681B6A3A5D0B49284698470134A1
:1004F000304600F039FDA042F3DC2B681B6A074947
:1005000028469847F8BD00BFB04C0008C44C00080E
:10051000D84C0008F04C0008044D00080C4D0008B1
:1005200008B500F09DF808BD0F4B1B68BFF35B8F4B
:1005300013F0010F01D00D48704710B504460A486A
:1005400002F007FE08B9094810BD23460B220C2112
:10055000064800F0FDF9044802F00AFEF3E70248FD
:1005600002F003FE02F0A5FA180100201C01002091
:10057000114B1B68BFF35B8F13F0010F01D00F48C5
:10058000704730B583B004460D460B4802F0E1FDDC
:1005900010B90A4803B030BD00952346032202215A
:1005A000064800F017FC044802F0E2FDF1E70248BB
:1005B00002F0DBFD02F07DFA8400002088000020BC
:1005C00030B58DB0FFF7ACFF0020FFF7ADFF04465C
:1005D00000214FF41650FFF7CBFF054602461B499A
:1005E000204600F07DF81A4A0AAB92E8030083E83F
:1005F000030001210091082206A800F099FC02A83E
:1006000000F0ACFC2B681B6A124928469847236807
:100610001B6800212046984758B12B681B6A0E4979
:100620002846984701200DB030BD4FF47A7000F095
:10063000B3FC23689B6806A9204698470028F4D09D
:100640002B681B6A054928469847EBE79904000880
:10065000A84C0008144D00082C4D0008544D00080B
:1006600010B596B000F0DAFC282200210CA803F0A7
:100670000EF800240794089409940A940B940094AB
:1006800001940294039404940594069402230C9319
:10069000012210921022119213934FF4002315930C
:1006A0000CA801F04BFA0F230793089409940A94BD
:1006B0000B94214607A801F097FD02F0BEF916B091
:1006C00010BD000010B4054C0460416082600376E8
:1006D0000023036143615DF8044B70477C4D0008C3
:1006E00001614261704700B58BB049010091002162
:1006F000019102924FF6FF720392049105930691C5
:1007000007910123089369461C3000F066FD10B97B
:100710000BB05DF804FB0220FAE700B58BB04FF494
:1007200080530093002301934FF4704202924FF6DE
:10073000FF72039204930122059206930793089196
:1007400069461C3000F049FD10B90BB05DF804FBA0
:100750000220FAE730B58DB0037E002B55D04FF064
:1007600080432F4AC26101220262436200238362F6
:100770004FF44022C2624FF48012026380F834309A
:10078000002944D0012380F83530002480F8364019
:1007900080F8374080F8384080F8394000F11C0577
:1007A000204B1D60204B1860204BDA6942F000722C
:1007B000DA61DB6903F000730193019B284600F0C6
:1007C00066FC0221284600F026FF22460421142060
:1007D00001F0AAF8142001F0B7F8029403940494ED
:1007E0004FF6FF7305930694079408940994012328
:1007F0000A9302A9284600F0F0FC60B9284600F0F0
:100800006FFD50B920460DB030BD0023A9E700238D
:1008100080F83530B9E70220F5E70220F3E700BFA2
:1008200000640040B8070020BC0700200010024010
:1008300008B51C3000F082FD00B908BD0220FCE7BD
:10084000F0B58BB006460D4600230493059306933E
:100850000793089309930293039301230193084696
:1008600000F098FB58B3284600F07CFB0590284622
:1008700000F090FB40B3042306930024079428461D
:1008800000F072FB08908DF82440284600F06EFBC3
:100890000746284600F068FB0246394602A802F0E7
:1008A00087FF06F11C05284600F0F7FD70B9FF2C04
:1008B0000CD0012000F070FB0134E4B2F1E72846CF
:1008C00000F050FB0490D2E70023D5E701AB02AA69
:1008D00004A9284600F063FD20B1032804D10120BB
:1008E0000BB0F0BD0020FBE70220F9E708B5024B92
:1008F000186800F0AEFE08BDB807002008B5034632
:10090000026922B1084659699047012008BD0020BC
:10091000FCE7F8B506460F460546632404E0284682
:1009200000F01CFB013C1035002CF8DA6423C6F8FB
:100930004036C6F84466C6F8486606F5C863C6F889
:100940004C360023C6F8503686F854763046F8BD4B
:1009500070B58CB004460E461546FFF7B3FE204630
:100960000E4B40F8443B0021FFF7D3FF00230793D1
:10097000089309930A930B9305960695092302930E
:1009800003230193012300931223022205A907A840
:1009900000F00CF920460CB070BD00BF9C4D000863
:1009A00010B50446D0F850360BB9002010BD0846EB
:1009B000D4F8441600F0E3FAD4F844361033C4F8FF
:1009C0004436D4F84C26934201D3C4F84446D4F8B4
:1009D0005036013BC4F850360120E7E7F8B505462C
:1009E0000F46164603E0012000F0D6FA3CB9D5F8D0
:1009F0009446002EF7D1002CF5D10120F8BD3946E0
:100A000005F14400FFF7CCFF08B10020F6E7012014
:100A1000F4E710B50446D0F85026D0F840369A4294
:100A200002D190F85406C0B1D4F8480600F0A7FAF5
:100A3000D4F848361033C4F84836D4F84C269342DC
:100A400001D3C4F84846D4F85036D4F840168B4247
:100A500004D00133C4F85036012010BDD4F8443618
:100A60001033C4F844369A4203D2C4F844460120F5
:100A7000F3E70120F1E708B590F898362BB9D0F8E4
:100A80009426D0F884369A4202D04430FFF7C1FF52
:100A900008BD000000B591B0002109910A910B91A9
:100AA0000C910D910E910F9107AB09AA00F00EFD6C
:100AB0000B9B042B0CBF0123002310D0099900933A
:100AC00007AB9DF8342003A800F032FA03A9084BC5
:100AD0001868FFF713FF20B111B05DF804FB0A9905
:100AE000EDE703A9024B1868FFF7C5FFF4E700BF65
:100AF000BC07002008B5012001F012F808BD08B5B8
:100B0000022001F00DF808BD08B5042001F008F836
:100B100008BD08B5082001F003F808BD08B510208D
:100B200000F0FEFF08BD08B5202000F0F9FF4020CE
:100B300000F0F6FF802000F0F3FF4FF4807000F02B
:100B4000EFFF4FF4007000F0EBFF08BD08B54FF465
:100B5000806000F0E5FF4FF4006000F0E1FF4FF42B
:100B6000805000F0DDFF4FF4005000F0D9FF4FF44B
:100B7000804000F0D5FF4FF4004000F0D1FF08BDE9
:100B800008B5002302E040080133DBB210F0010F8A
:100B9000F9D0044A52F823201AB1034951F823002E
:100BA000904708BD00080020C0070020F0B587B0BE
:100BB00005460F4616469DF83810022A0FD03A68AF
:100BC00002F00F00012282402A606B600C9BAB6038
:100BD0000D9BEB600D2900D0296100241DE03A68CF
:100BE00002F00F02012000FA02F27C6804F00F0408
:100BF000A04002432A60E8E7324B5A6942F40032CF
:100C00005A615B6903F400330193019B29464FF05D
:100C1000904000F0BBFE0134E4B2B44250D217F869
:100C200024301B09052BF6D801A252F823F000BF8F
:100C3000F90B0008490C0008670C0008850C000837
:100C4000170C0008A30C00081E4B5A6942F48022BE
:100C50005A615B6903F480230293029B29461A4878
:100C600000F094FED7E7174B5A6942F400225A610C
:100C70005B6903F400230393039B2946134800F0A8
:100C800085FEC8E70F4B5A6942F480125A615B69CE
:100C900003F480130493049B29460D4800F076FE6C
:100CA000B9E7084B5A6942F480025A615B6903F460
:100CB00080030593059B2946064800F067FEAAE7D6
:100CC00007B0F0BD001002400004004800080048D2
:100CD000000C0048001400484161C1607047816108
:100CE000026203627047406E003818BF01207047EF
:100CF000C06DB0FA80F04009704708B503685B69C1
:100D0000984708BD08B50368DB69984708BD08B572
:100D1000103001F070FB08BD00B583B08DF80710EE
:100D2000642301220DF10701103001F01DFD03B015
:100D30005DF804FB08B5642392B2103001F014FD95
:100D400008BD10B59AB00446642201A802F08CFCDC
:100D500001A8FFF71DFA642382B201A904F1100073
:100D600001F002FD1AB010BD10B582B00446642334
:100D700001220DF1070104F1100001F060FD0328CC
:100D8000F5D09DF8070002B010BD08B5642392B2FB
:100D9000103001F054FD08BD0EB410B5B5B00446D6
:100DA00037AA52F8041B339201A802F053FC002822
:100DB00004DC35B0BDE8104003B0704701A8FFF770
:100DC000E7F9642382B201A904F1100001F0CCFC20
:100DD000EFE700002DE9F0418EB004460D46904645
:100DE0001E469DF8507000F0E5F82046464B40F84E
:100DF000103B8022002102F04AFC0795CDF82080AC
:100E00002A2D0EDC0E2D39DB0E3D0122AA403F4B70
:100E10001340002B40D112F0210F47D13C4B1A4216
:100E200030D13C4D3C4A0321284600F0BFF83B4AF4
:100E30000321284600F0BAF8FF230293032301930D
:100E40000025009502231A4607A909A8FFF7AEFE60
:100E50006661A561E5612562A5620C236362E562B6
:100E600027B1082363634FF40043636404F1100067
:100E700001F0AAFD20460EB0BDE8F081022D15D08C
:100E8000092DCED1264B236103F558439B6913F4FA
:100E9000804F15D00723D0E7224B236103F5E433BD
:100EA000DB6913F4802F23D00723C6E71E4B236191
:100EB00003F5E633DB6913F4003F0DD00723BCE7ED
:100EC0001A4B9A6942F480429A619B6903F4804309
:100ED0000493049B0723B0E7144BDA6942F4003211
:100EE000DA61DB6903F400330593059B0723A4E76C
:100EF0000E4BDA6942F48022DA61DB6903F4802365
:100F00000693069B072398E7DC4D000800180010A5
:100F10000001400040080020B44D0008C44D000806
:100F200000380140004800400044004000100240EA
:100F300000B50160082A00D908220271002106E0EC
:100F400013F801E000EB010C8CF805E001318A4256
:100F5000F6DC9DF8043043735DF804FB0022026068
:100F6000027170470068704700797047053070471C
:100F70000A684B68C0F80520C0F80930704710B502
:100F800004460B6803600B7903710531FFF7F0FF2E
:100F9000204610BD407B704710B5044600F03EF877
:100FA00001F04BFD204600F05DF810BD0CB402B01E
:100FB0007047000010B4044C046041608260C3605C
:100FC0005DF8044B704700BF184E000870470000E2
:100FD00010B504460E4B1A784FF47A73B3FBF2F354
:100FE0000C4A1068B0FBF3F000F0BCFC68B90F2CA1
:100FF00001D901200AE0002221464FF0FF3000F025
:1010000093FC054B1C60002000E0012010BD00BFD8
:10101000040000200C0000200800002008B5074A4A
:10102000136843F010031360032000F06BFC0020F2
:10103000FFF7CEFFFFF7CAFF002008BD00200240E7
:10104000034A1168034B1B780B441360704700BFC1
:101050004C08002004000020014B1868704700BFB6
:101060004C08002038B50446FFF7F6FF0546B4F1FA
:10107000FF3F02D0044B1B781C44FFF7EDFF401BE1
:10108000A042FAD338BD00BF0400002070470028FA
:1010900000F0A18038B5044690F82030D3B1226822
:1010A000136823F002031360FFF7D6FF0546236899
:1010B0005A6812F0020F10D0FFF7CEFF401B0A282B
:1010C000F5D9636A43F400336362052384F8203062
:1010D000012038BDFFF7DAFFE1E71A6842F00102AC
:1010E0001A60FFF7B9FF054623685A6812F0010F2E
:1010F0000DD1FFF7B1FF401B0A28F5D9636A43F40D
:1011000000336362052384F820300120E1E7227E6A
:10111000012A3DD01A6822F080021A60637E012BFA
:101120003BD02268136823F040031360A37E012B99
:1011300039D02268136823F020031360E37E012B6B
:1011400037D02268136843F010031360237F012B0C
:1011500035D02268136823F008031360637F012BE6
:1011600033D02268136823F004031360A368E26895
:10117000134322691343626913436268013A216889
:101180001343CB6100206062012384F82030A0E784
:101190001A6842F080021A60C0E72268136843F0C0
:1011A00040031360C2E72268136843F02003136012
:1011B000C4E72268136823F010031360C6E72268AF
:1011C000136843F008031360C8E72268136843F00C
:1011D00004031360CAE701207047026890F82030CA
:1011E000013BDBB2012B05D9436A43F48023436200
:1011F0000120704730B4D2F8003243F00103C2F846
:1012000000324B6903F01F03012000FA03F3D2F808
:101210001C026FEA030C20EA0300C2F81C02C86932
:10122000B0B9D2F80C020CEA0000C2F80C028C88AB
:101230004869CD6844EA0544483042F830400C889B
:1012400048698D6844EA0544483002EBC0004460B8
:10125000C86901281BD0886980BBD2F804020CEA57
:101260000000C2F80402086970BBD2F814020CEA4C
:101270000000C2F81402096A01292BD0D2F800320A
:1012800023F00103C2F80032002030BC7047D2F8CE
:101290000C021843C2F80C028C8848690D6844EAB5
:1012A0000544483042F830408C8948698D6844EAEA
:1012B0000544483002EBC0004460CCE7D2F8040299
:1012C0001843C2F80402CEE7D2F814021843C2F859
:1012D0001402D0E7D2F81C120B43C2F81C32CDE73F
:1012E00070B5044690F82050EDB2012D06D0436A47
:1012F00043F4002343620125284670BD022380F891
:1013000020300268136823F001031360FFF7A4FE86
:10131000064623685B6813F0010F0CD0FFF79CFEB4
:10132000831B0A2BF5D9636A43F4003363620523F8
:1013300084F82030E0E700256562DDE738B5044633
:1013400090F82030DBB2022B05D0436A43F48013BF
:101350004362012038BD0268136843F00103136043
:10136000FFF77AFE054623685A6812F0010F0DD187
:10137000FFF772FE431B0A2BF5D9636A43F400336F
:101380006362052384F820300120E3E71A6822F025
:1013900002021A60012384F820300020DAE730B519
:1013A00090F820C00468A4680CF1FF3C5FFA8CFC44
:1013B000BCF1010F6BD814F0E05F62D0C4F3016C94
:1013C000BCF1020F05D9436A43F4000343620120D4
:1013D00062E0012404FA0CF41C608B68002B3DD100
:1013E0000D68CB68046843EA45550CF118031B01EE
:1013F000E55003680C690CF1180E03EB0E135C60EA
:101400000B7D012B35D0D17993791B0443EA01631D
:10141000517943EA012314790168234301EB0C114C
:10142000C1F88C31D17893781B0443EA0163517879
:1014300043EA0123117802680B4302EB0C12C2F855
:10144000883102680CF1180C4FEA0C1C52F80C3071
:1014500043F0010342F80C3000201DE04C6843EAE1
:10146000C403CC6823430CF11804240105682B51F4
:10147000BFE7036803EB0E13596841F480715960AC
:10148000C1E7436A43F400134362012004E0436A66
:1014900043F480234362012030BD90F82030013BAB
:1014A000DBB2012B01D9002070470368986810F067
:1014B000806000D001209A6812F0006F00D00130E7
:1014C0009B6813F0805FEFD00130704790F820C028
:1014D0000CF1FF3C5FFA8CFCBCF1010F00F295802F
:1014E00030B451B90468E46814F0030F10D1436AB2
:1014F00043F400134362012077E00468246914F088
:10150000030F05D1436A43F40013436201206CE0EA
:1015100001F11B04240105682C5904F004049460B3
:10152000002C64D101F11B04240105682C59640DC1
:101530001460046801F11B0C4FEA0C1C54F80C40B9
:1015400004F00204D46004686444646804F00F0486
:101550001461046864446468C4F3072494610468F3
:1015600064446468240C5461026802EB0112D2F8EE
:10157000B8211A70026802EB0112D2F8B821C2F346
:1015800007225A70026802EB0112D2F8B821C2F3A6
:1015900007429A70026802EB0112D2F8B821120ECB
:1015A000DA70026802EB0112D2F8BC211A710268EB
:1015B00002EB0112D2F8BC21C2F307225A71026871
:1015C00002EB0112D2F8BC21C2F307429A71026801
:1015D00002EB0112D2F8BC21120EDA7179B902685D
:1015E000D36843F02003D360002030BC704701F182
:1015F0001B04240105682C59E408546099E702682B
:10160000136943F020031361EEE7436A43F4802338
:1016100043620120704790F82030013BDBB2012B80
:1016200005D9436A43F4802343620120704702686E
:1016300053690B43536100207047704770477047F0
:1016400070477047704770477047704770477047E2
:1016500070472DE9F84F054603685C69D3F80480AC
:101660009F68D3F80CB0D3F810A0D3F8189014F0FA
:1016700001063BD017F0010616D001229A6017F040
:10168000020F08D117F0040F0CD117F0080606D08E
:101690004FF4805608E0FFF7D0FF002604E0FFF784
:1016A000CFFF01E04FF4006617F4807F0DD02B6868
:1016B0004FF480729A6017F4007F40F0868017F430
:1016C000806F00F0868046F4005617F4803F0DD0FE
:1016D0002B684FF480329A6017F4003F40F083800B
:1016E00017F4802F00F0838046F4004614F0080FB2
:1016F00007D01BF0100F04D046F400762B681022A0
:10170000DA6014F0040F02D01BF0080F79D114F046
:10171000020F04D02B68DB6813F0030F78D114F0AC
:10172000400F07D01AF0100F04D046F480662B68E3
:1017300010221A6114F0200F02D01AF0080F6BD19A
:1017400014F0100F04D02B681B6913F0030F6AD13B
:1017500014F4003F02D018F0100F68D114F4803F49
:1017600002D018F0080F69D114F4004F7AD018F0A5
:10177000040F74D014F4807F04D019F0010F01D04D
:1017800046F0010614F4007F04D019F0020F01D0D6
:1017900046F0020614F4806F04D019F0040F01D053
:1017A00046F0040614F4006F59D019F0700956D0B1
:1017B000B9F1400F65D058D8B9F1200F5ED0B9F11A
:1017C000300F42D146F0200644E02846FFF736FFAE
:1017D0007BE717F4006F02D046F4804675E7284691
:1017E000FFF72FFF71E72846FFF729FF7EE717F481
:1017F000002F02D046F4803678E72846FFF722FF14
:1018000074E72B680822DA602846FFF71CFF7EE7A2
:101810002846FFF73FF982E72B6808221A6128461D
:10182000FFF713FF8CE72846FFF70EFF90E72B68C2
:1018300010225A602846FFF709FF8FE72B6808221D
:101840005A602846FFF703FF8EE7B9F1100F01D168
:1018500046F008062A68936923F0700393612B68A9
:1018600004225A609EB9BDE8F88FB9F1500F0BD031
:10187000B9F1600FEED146F48076EBE746F0100642
:10188000E8E746F04006E5E746F08006E2E76B6AE7
:1018900033436B622846FFF7DBFEE4E7002808DBF2
:1018A0000901C9B200F1604000F5614080F8001301
:1018B000704700F00F000901C9B2014B195470477D
:1018C00014ED00E000B500F00700C0F1070CBCF11A
:1018D000040F28BF4FF0040C031D062B0FD9C31EA5
:1018E0004FF0FF3E0EFA0CF021EA000199400EFA8B
:1018F00003FE22EA0E0241EA02005DF804FB002327
:10190000EEE70000074AD36823F4E0631B041B0CD6
:10191000000200F4E060034343F0BF6343F400338C
:10192000D360704700ED00E010B50446054BD86861
:10193000C0F30220FFF7C6FF01462046FFF7AEFFC7
:1019400010BD00BF00ED00E0002807DB00F01F0223
:10195000400901239340024A42F82030704700BFFB
:1019600000E100E00138B0F1807F0BD24FF0E023BE
:101970005861054AF02182F823100020986107225F
:101980001A6170470120704700ED00E0F0B583B0A8
:10199000002237E0032400E00024B44044EA0C04B1
:1019A00002355B4E46F825405A4C2568DC4325EA53
:1019B00003064F6817F4803F01D043EA0506554DF2
:1019C0002E606D6804EA05064F6817F4003F01D0E9
:1019D00043EA05064F4D6E60AD6804EA05064F68A0
:1019E00017F4801F01D043EA05064A4DAE60ED684A
:1019F0002C404E6816F4001F01D043EA0504454B05
:101A0000DC6001320B6833FA02F47FD04FF0010C36
:101A10000CFA02FC1CEA0303F3D04C68022C01D040
:101A2000122C12D1D508083550F8254002F00706CF
:101A3000B6004FF00F0E0EFA06FE24EA0E0E0C69E9
:101A4000B44044EA0E0440F8254006684FEA420ECE
:101A5000032404FA0EF4E54326EA04064C6804F075
:101A6000030404FA0EF4344304604C68661E012E2D
:101A700003D9112C01D0122C0FD186682E40CC68CE
:101A800004FA0EF434438460466826EA0C064C6877
:101A9000C4F30014944034434460C46825408C6807
:101AA00004FA0EF42C43C4604C6814F0805FA8D094
:101AB000194CA56945F00105A561A46904F001046C
:101AC0000194019C9508AE1C114C54F8264002F07C
:101AD0000306B6004FF00F0C0CFA06FC24EA0C0CBF
:101AE000B0F1904F3FF458AF0C4CA0420AD004F52F
:101AF0008064A04208D004F58064A0423FF44AAF5D
:101B000005244AE7012448E7022446E703B0F0BD74
:101B100000000140000401400010024000040048A1
:101B200008B5054B5B69034200D108BD024B586103
:101B3000FFF726F8F9E700BF00040140002800F095
:101B4000FF8270B582B00446036813F0010F3BD0EA
:101B5000B44B5B6803F00C03042B1ED0B14B5B68E5
:101B600003F00C03082B13D06368B3F5803F68D0F3
:101B7000002B40F0928003F1804303F504331A6890
:101B800022F480321A601A6822F480221A605DE022
:101B9000A44B5B6813F4803FE6D04FF4003393FA14
:101BA000A3F3A04B19684FF4003393FAA3F3B3FAED
:101BB00083F303F01F03012202FA03F30B4203D065
:101BC0006368002B00F0BE82236813F0020F00F060
:101BD000C480944B5B6813F00C0F00F09C80914B19
:101BE0005B6803F00C03082B00F08F802369002B47
:101BF00000F0F080012292FAA2F3B3FA83F303F12A
:101C0000845303F584139B001A60FFF725FA0546F9
:101C1000022393FAA3F3834B1968022393FAA3F3E5
:101C2000B3FA83F303F01F03012202FA03F30B421A
:101C300040F0C280FFF710FA401B0228E8D90320C9
:101C400089E2784A136843F480331360754AD36A93
:101C500023F00F03A1680B43D3626368002B36D0D7
:101C6000FFF7FAF905464FF4003393FAA3F36D4BEF
:101C700019684FF4003393FAA3F3B3FA83F303F034
:101C80001F03012202FA03F30B429DD1FFF7E4F98F
:101C9000401B6428E7D903205DE2B3F5A02F09D0EB
:101CA000604B1A6822F480321A601A6822F480228B
:101CB0001A60CBE703F18043A3F53C331A6842F482
:101CC00080221A601A6842F480321A60BEE7FFF779
:101CD000C3F905464FF4003393FAA3F3514B196847
:101CE0004FF4003393FAA3F3B3FA83F303F01F0323
:101CF000012202FA03F30B423FF466AFFFF7ACF99F
:101D0000401B6428E6D9032025E2464B5B6813F4A8
:101D1000803F7FF46BAF022393FAA3F3414B196822
:101D2000022393FAA3F3B3FA83F303F01F03012210
:101D300002FA03F30B4203D02369934240F004827A
:101D40003848036823F0F8036169F82292FAA2F296
:101D5000B2FA82F291400B430360236813F0080F3C
:101D600000F08C80A369002B60D0012191FAA1F2D0
:101D7000B2FA82F22C4B13449B001960FFF76CF906
:101D80000546022393FAA3F293FAA3F293FAA3F27D
:101D9000244A516A93FAA3F3B3FA83F303F01F03BF
:101DA000012202FA03F30B4268D1FFF755F9401BF9
:101DB0000228E6D90320CEE11A48036823F0F8038D
:101DC0006169F82292FAA2F2B2FA82F291400B43D0
:101DD0000360C2E7012393FAA3F3B3FA83F303F199
:101DE000845303F584139B0000221A60FFF734F933
:101DF0000546022393FAA3F30A4B1968022393FAC8
:101E0000A3F3B3FA83F303F01F03012202FA03F3EF
:101E10000B42A2D0FFF720F9401B0228E9D903208A
:101E200099E100BF0010024020819010012292FA37
:101E3000A2F2B2FA82F2B74B13449B0000221A605E
:101E4000FFF70AF90546022393FAA3F293FAA3F2E5
:101E500093FAA3F2B04A516A93FAA3F3B3FA83F365
:101E600003F01F03012202FA03F30B4206D0FFF72F
:101E7000F3F8401B0228E6D903206CE1236813F035
:101E8000040F00F0A980A44BDB6913F0805F20D120
:101E9000A14BDA6942F08052DA61DB6903F08053CA
:101EA0000193019B01259D4B1B6813F4807F12D089
:101EB000E368012B23D073BB03F1804303F50433A4
:101EC0001A6A22F001021A621A6A22F004021A62E5
:101ED0001AE00025E7E7914A136843F48073136022
:101EE000FFF7BAF806468D4B1B6813F4807FDFD1ED
:101EF000FFF7B2F8801B6428F5D903202BE1864A4E
:101F0000136A43F001031362E368002B3CD0FFF730
:101F1000A3F806462EE0052B09D07F4B1A6A22F063
:101F200001021A621A6A22F004021A62ECE77A4B82
:101F30001A6A42F004021A621A6A42F001021A6234
:101F4000E2E7022393FAA3F3734B596A022393FA4D
:101F5000A3F3B3FA83F303F01F03012202FA03F39E
:101F6000194238D1FFF778F8801B41F28833984244
:101F700000F2EC80022393FAA3F293FAA3F3002B6E
:101F8000DFD0654B196AE1E7FFF766F8064618E00F
:101F9000022393FAA3F3604B596A022393FAA3F343
:101FA000B3FA83F303F01F03012202FA03F3194289
:101FB00011D0FFF751F8801B41F28833984200F2AC
:101FC000C780022393FAA3F293FAA3F3002BDFD086
:101FD000514B196AE1E7B5BBE369002B00F0BA8009
:101FE0004D4A526802F00C02082A00F09980022B38
:101FF0002FD04FF0807393FAA3F3B3FA83F303F176
:10200000845303F584139B0000221A60FFF724F821
:1020100004464FF0007393FAA3F33F4B19684FF057
:10202000007393FAA3F3B3FA83F303F01F030122BF
:1020300002FA03F319426BD0FFF70EF8001B0228D7
:10204000E7D9032087E0344AD36923F08053D36172
:10205000C2E74FF0807393FAA3F3B3FA83F303F16B
:10206000845303F584139B0000221A60FEF7F4FFEB
:1020700005464FF0007393FAA3F3274B19684FF00E
:10208000007393FAA3F3B3FA83F303F01F0301225F
:1020900002FA03F3194206D0FEF7DEFF401B0228C6
:1020A000E7D9032057E01C494B6823F47413626A94
:1020B000206A024313434B604FF0807393FAA3F3FB
:1020C000B3FA83F303F1845303F584139B000122D5
:1020D0001A60FEF7C1FF04464FF0007393FAA3F3B2
:1020E0000D4B19684FF0007393FAA3F3B3FA83F31F
:1020F00003F01F03012202FA03F3194206D1FEF78F
:10210000ABFF001B0228E7D9032024E0002022E0D7
:10211000002020E02081901000100240007000405C
:10212000012B1AD0104B5B6803F48031226A914274
:1021300015D103F47013626A934212D100200AE0B1
:1021400001207047012006E0012004E0032002E0A6
:10215000032000E0002002B070BD0120FBE7012059
:10216000F9E70120F7E700BF00100240184B5A685A
:1021700002F00C03042B26D0082B26D102F4701198
:102180004FF4701393FAA3F3B3FA83F321FA03F332
:102190001049C85C0E4BDB6A03F00F030F2191FA64
:1021A000A1F1B1FA81F1CB400B49C95C12F4803F37
:1021B00005D00A4BB3FBF1F303FB00F07047084B6B
:1021C00003FB00F07047054870470648704700BFA2
:1021D000001002405C4E00084C4E00080048E80128
:1021E00000093D0000127A00002800F0BE8070B5A2
:1021F0000D460446614B1B6803F007038B420BD26C
:102200005E4A136823F007030B431360136803F05F
:1022100007038B4240F0AB80236813F0020F06D017
:10222000574A536823F0F003A1680B4353602368B7
:1022300013F0010F5AD06368012B2DD0022B40D030
:10224000022292FAA2F24E4A1068022292FAA2F2F6
:10225000B2FA82F202F01F02012101FA02F21042E8
:1022600000F0878046494A6822F0030213434B601E
:10227000FEF7F2FE0646424B5B6803F00C03626811
:10228000B3EB820F32D0FEF7E7FE801B41F28833BA
:102290009842F0D9032067E04FF4003292FAA2F29C
:1022A000374A10684FF4003292FAA2F2B2FA82F280
:1022B00002F01F02012101FA02F20242D2D10120F2
:1022C00052E04FF0007292FAA2F22D4A10684FF0DD
:1022D000007292FAA2F2B2FA82F202F01F02012117
:1022E00001FA02F21042BDD101203DE0234B1B68F0
:1022F00003F00703AB420AD9204A136823F007030F
:102300002B431360136803F00703AB4233D12368F8
:1023100013F0040F06D01A4A536823F4E063E1680F
:102320000B435360236813F0080F07D0144A536817
:1023300023F46053216943EAC1035360FFF716FF9A
:102340000F4B5B6803F0F003F02292FAA2F2B2FAAC
:1023500082F2D3400B4AD35CD8400B4B18600B4B36
:102360001868FEF735FE002070BD0120704701207F
:10237000FAE70120F8E70120F6E700BF002002405D
:1023800000100240744E00080C00002008000020DD
:10239000014B1868704700BF0C00002008B5FFF71C
:1023A000F7FF074B5B6803F4E0634FF4E06292FAD7
:1023B000A2F2B2FA82F2D340024AD35CD84008BDFE
:1023C000001002406C4E000808B5FFF7E1FF074B14
:1023D0005B6803F460534FF4605292FAA2F2B2FACF
:1023E00082F2D340024AD35CD84008BD00100240BC
:1023F0006C4E0008704790F87030012B10D001230C
:1024000080F87030242343670268936943F0020325
:10241000936120234367002380F87030184670478B
:102420000220704738B50446836802691343426945
:102430001343C2691343016808686C4A02401A4397
:102440000A602268536823F44053E1680B435360E9
:10245000A269236A1A4321688B6823F4306313430B
:102460008B602368624A934215D0624A934228D017
:1024700002F58062934220D01025E369B3F5004F46
:1024800021D0082D00F29E80DFE805F06B747E9C61
:10249000899C9C9C9300584B1B6B03F00303032BFC
:1024A00009D8DFE803F00204060C0025E5E704255F
:1024B000E3E70825E1E71025DFE70025DDE7022552
:1024C000DBE70025D9E7082D3AD8DFE805F0050F4E
:1024D0001A39253939393000FFF760FF626853082F
:1024E00003EB4003B3FBF2F39BB22BE0FFF76CFF6F
:1024F0006268530803EB4003B3FBF2F39BB2002581
:1025000020E06268530803F5740303F51053B3FB2E
:10251000F2F39BB2002515E0FFF728FE626853082E
:1025200003EB4003B3FBF2F39BB200250AE06268C1
:10253000530803F58033B3FBF2F39BB2002501E0AF
:1025400001250023A3F110014FF6EF72914244D808
:102550009AB222F00F02C3F3420313432268D360FE
:102560003EE0FFF71BFF626800EB5203B3FBF2F3A0
:102570009BB229E0FFF728FF626800EB5203B3FB30
:10258000F2F39BB200251FE06268530803F5F403E1
:1025900003F59053B3FBF2F39BB2002514E0FFF771
:1025A000E5FD626800EB5203B3FBF2F39BB200253A
:1025B0000AE06268530803F50043B3FBF2F39BB2F1
:1025C000002501E001250023A3F110014FF6EF7271
:1025D000914204D82268D36002E0012500E0012581
:1025E000002323666366284638BD00BFF369FFEF0A
:1025F000003801400044004000100240436A13F0DC
:10260000010F06D00268536823F40033816A0B433C
:102610005360436A13F0020F06D00268536823F434
:102620008033C16A0B435360436A13F0040F06D032
:102630000268536823F48023016B0B435360436AA1
:1026400013F0080F06D00268536823F40043416B6F
:102650000B435360436A13F0100F06D0026893686F
:1026600023F48053816B0B439360436A13F0200F74
:1026700006D00268936823F40053C16B0B43936048
:10268000436A13F0400F0AD00268536823F48013A2
:10269000016C0B435360036CB3F5801F0BD0436A8E
:1026A00013F0800F06D00268536823F40023816C76
:1026B0000B43536070470268536823F4C003416CB6
:1026C0000B435360EBE72DE9F84305460F461646EA
:1026D0009946DDF820802B68DC6937EA04040CBFDA
:1026E00001240024B4423CD1B8F1FF3FF3D0FEF7FF
:1026F000B3FCA0EB0900404521D8B8F1000F1ED073
:102700002B681A6812F0040FE5D0DA6912F4006F32
:10271000E1D04FF400621A622A68136823F4D07380
:1027200013602A68936823F00103936020236B678A
:10273000AB67EB67002385F87030032012E02A684E
:10274000136823F4D07313602A68936823F001039D
:10275000936020236B67AB67002385F870300320FC
:1027600000E00020BDE8F8832DE9F04182B01E466C
:10277000436F202B55D104460D469046002954D076
:10278000002A54D090F87030012B52D0012380F8E9
:1027900070300023C36721234367FEF75DFC0746C3
:1027A000A4F85080A4F85280A368B3F5805F02D0EB
:1027B0004FF0000814E0236913B14FF000080FE058
:1027C000A84600250CE038F8023B2268C3F3080352
:1027D0001385B4F8522092B2013A92B2A4F8522072
:1027E000B4F852309BB273B100963B460022802170
:1027F0002046FFF768FFF0B9002DE4D015F8012B53
:1028000023681A85E5E700963B46002240212046D2
:10281000FFF759FF88B920236367002384F87030DD
:1028200000E0022002B0BDE8F0810120FAE70120BB
:10283000F8E70220F6E70320F4E70320F2E72DE9AA
:10284000F04383B01E46836F202B7BD104460D4698
:10285000904600297AD0002A7AD090F87030012B67
:1028600078D0012380F870300023C3672223836768
:10287000FEF7F2FB0746A4F85880A4F85A80A36834
:10288000B3F5805F06D0A3B9226972B9FF22A4F81C
:102890005C2014E0226922B940F2FF12A4F85C2007
:1028A0000DE0FF22A4F85C2009E07F22A4F85C2060
:1028B00005E0B3F1805F0AD00022A4F85C20B4F8F0
:1028C0005C80B3F5805F0CD04FF000091EE02269F8
:1028D0001AB97F22A4F85C20F1E73F22A4F85C201B
:1028E000EDE7236913B14FF000090FE0A946002579
:1028F0000CE023689B8C08EA030329F8023BB4F838
:102900005A2092B2013A92B2A4F85A20B4F85A303E
:102910009BB28BB100963B46002220212046FFF758
:10292000D2FEC8B9002DE4D023689A8C5FFA88F3F0
:10293000134005F8013BE2E72023A367002084F859
:10294000700000E0022003B0BDE8F0830120FAE748
:102950000120F8E70220F6E70320F4E730B583B062
:1029600004460023C367FEF777FB0546226812681A
:1029700012F0080F0CD123681B6813F0040F15D157
:1029800020236367A367002084F8700003B030BD84
:102990006FF07E430093034600224FF4001120465F
:1029A000FFF791FE0028E6D00320EFE76FF07E43AB
:1029B00000932B4600224FF480012046FFF783FE50
:1029C0000028DDD00320E1E768B310B50446436F6B
:1029D00003B3242363672268136823F001031360A1
:1029E0002046FFF71FFD012813D0636ABBB9226898
:1029F000536823F4904353602268936823F02A03BA
:102A000093602268136843F0010313602046FFF7C8
:102A1000A5FF10BD80F87030FFF7ECFCD9E7204629
:102A2000FFF7ECFDE3E7012070477047FEE7FEE7A4
:102A3000FEE7FEE770477047704708B5FEF700FBFA
:102A400008BD0000054BD3F8882042F47002C3F89B
:102A500088204FF000629A60704700BF00ED00E0F0
:102A6000DFF834D00D480E490E4A002302E0D45856
:102A7000C4500433C4188C42F9D30B4A0B4C0023C6
:102A800001E013600432A242FBD3FFF7DBFF00F04A
:102A90005BFEFDF795FDFEE7003000200000002002
:102AA000680000201853000868000020A8090020D2
:102AB000FEE71EB400F08DF81EBCFDF75FFC037846
:102AC000472B17D143784E2B14D18378552B11D136
:102AD000C378432B0ED10379432B0BD143792B2B96
:102AE00008D183792B2B05D1C07901288CBF002018
:102AF00001207047002070472DE9F3411E460378FE
:102B0000472B04460F4613D143784E2B10D18378C0
:102B1000552B0DD1C378432B0AD10379462B07D10E
:102B200043794F2B04D18379522B01D1C2793AB327
:102B30002046FFF7C4FF024620B3E37954F8202C67
:102B4000012B0EBF52F8785C154604F158022B6831
:102B500001929B6828469847B0B1019B1B6801937E
:102B600002243B6801AAD3F8108029460123384685
:102B7000C04758B1019B3360204602B0BDE8F081E8
:102B8000034DE4E7034DE2E70124EAE70446F3E7F7
:102B9000A44E0008D04E000810B5044600F034F8EA
:102BA00002462046A4F12001FFF789FF60B154F8E6
:102BB000043C0133012B44F8043C03D1936844F8EE
:102BC000083C9160012010BD9368002BF9D000F003
:102BD000A9FA10B500F018F8826801460AB900F0A9
:102BE000A1FA02F120042046FFF769FF40B1D36942
:102BF000013BD36113B9906988609361204610BD91
:102C00008860FBE7704700000048704750080020CC
:102C1000024A0349034800F049BB00BF00000020FE
:102C2000052C00085008002030B500231A4610F883
:102C3000015B05F07F04944023432C0602F1070258
:102C4000F5D40B6030BD30B500231A4610F8014BA7
:102C500004F07F0595402B43250602F10702F5D4C9
:102C60001F2A06D8640642BF4FF0FF3404FA02F26E
:102C700013430B6030BD50282DE9F34106468846CA
:102C800015461F4608D1D01C20F0030050F8044B15
:102C90003C6002B0BDE8F08100F00F030C2B2ED891
:102CA000DFE803F025071D25292D2D2D2D182125C1
:102CB000290001A92846FFF7B7FF019C002CE7D0A7
:102CC00006F07003102B08BFA8464444330648BFE3
:102CD0002468DDE701A92846FFF7B5FFEDE72846A0
:102CE00030F8024BEAE7284630F9024BE6E728467F
:102CF00050F8044BE2E7284650F8084BDEE700F0B6
:102D0000D5FB08B50346FF2B08460DD003F0700332
:102D1000302B0FD004D8202B08D005D900F0C6FBEB
:102D2000402B0BD0502BF9D1002008BDBDE8084046
:102D300001F08BBFBDE8084001F084BFBDE808404A
:102D400001F070BF70B50C460146204615461E4680
:102D5000FFF7D7FF334601462A462046BDE87040BC
:102D6000FFF789BF73B50C461546064608B101F05A
:102D700059FF2246286012F8011BFF291CD02B1D89
:102D80003046FFF7DFFF0246104610F8013BFF2BED
:102D900014D010232B7501A9FFF746FF019B0344B4
:102DA000EB6010F8013B6B7501A9FFF73DFF019B3C
:102DB00003442B6102B070BD6860E5E72B7500230A
:102DC000EEE71FB503AB009300230A46194601F056
:102DD00045FA039805B05DF804FB00002DE9F04FBB
:102DE00093B00023079300F00303012B06460C4623
:102DF000154610D0022B03D0002B5DD103075DD503
:102E00002946204601F0F8FE18B1092013B0BDE8AC
:102E1000F08F0820FAE7070745D5022306F00806D9
:102E20001E430CAB009300230C22194628460C9439
:102E300001F03AFA062E43D1D4F83080D4E90A736F
:102E4000B8F1000F00F03C819946002FC0F23B81A1
:102E5000032600230DF12C091A461946CDF80090DF
:102E600028460B9401F020FA002319460122CDF8E0
:102E7000009028460B9701F017FA0F212846FFF71C
:102E8000A0FF00F0010040EA080000230B90CDF8FD
:102E900000900F221946284601F006FA022E00F093
:102EA0002C810720B2E70F6A10460D21FFF789FF3A
:102EB0008742B2D10623B1E700F0F8FA0123ADE76B
:102EC000284601F0B5FE8146002899D00CAA01469B
:102ED0002846FFF747FF9DF844B00390294658461F
:102EE000FFF70FFF0F2102900E902846FFF769FFB2
:102EF000039A20F0010808F1FF38109F97420DD87F
:102F00000027B8460123F10700F1C580320740F1E0
:102F1000D480012B40F0CC8000F004F99DF845A04E
:102F200008AB51460020FFF70DFF09AB02465146A2
:102F30000020FFF707FF0AAB024651460020FFF7CB
:102F400001FF0BA9FFF770FE0C9B08990B4443454A
:102F5000024653D809990B444345CED9DDE90A30DE
:102F6000002B3FF44DAF0D9A03EB020800283BD035
:102F700001383844B8F1000F3FF442AF16F00803AF
:102F800004933DD0472323704E2363705523A370D1
:102F90004323E370462323714F2363715223A371AC
:102FA0000023E3710023039309A9FFF74CFE0AA94C
:102FB0000590FFF748FE099F002F69D043DDBBF164
:102FC000FF0F3CD00BF00703042B3FF675AF01A2B7
:102FD00052F823F043300008B92E000813300008DF
:102FE000433000083B300008B8F1000F3FF408AF51
:102FF000F0073FF505AF002702262AE73A467CE7AF
:10300000E379012B0CBF54F8203C04F158030793DB
:10301000C8E702220F990BAB02FB17125846029920
:10302000FFF729FE0B9931B134B307AB00222046DC
:10303000FFF762FD00B3032365E70822EAE70022F9
:10304000E8E70422E6E70F9B6FF04042D21B03EB58
:10305000820AC4B10499B1B9079B0B93AAF1040A7F
:103060005AF8041F0029E6D00BAB00225144204639
:10307000FFF742FD0028F3D00A98002841D0059BB5
:103080000344184690E753F82230002BF4D1D2E7DE
:1030900001230393F0E70D212846079EFFF791FED9
:1030A000C4E90A79C4E90806C4F830800620ADE610
:1030B000002FBFF6CDAE00F047F8012B7FF4C5AE70
:1030C000204600F08AF90CAA49462846FFF74AFE36
:1030D0009DF844002946FFF714FE0F9BFA4303EBCB
:1030E0008203002253F8221029B9C4E90A200422DD
:1030F000C4E90C23ACE60132F4E72046FFF74CFDAF
:10310000CFE6039B002B7FF473AF79E608B58047C9
:1031100000F0CCF9024B1868BFF35B8F704700BF1B
:103120001400002008B5FFF7F5FFFFF7EFFF08B523
:103130008047FFF7F7FF0000024B1868BFF35B8F73
:10314000704700BF1000002008B5FFF7F5FFFFF73C
:10315000EEFF0268D207034605D4427802B1FFDED3
:10316000012058707047002070470023437070475B
:10317000012303607047000010B5034B0360044651
:1031800000F0B8F8204610BD144F000810B50446F2
:10319000FFF7F2FF20460C2100F000F9204610BD99
:1031A0002DE9F041DDF81880904506460F4615469A
:1031B0001C460BD0B0680368CDF818801E6A2A46FA
:1031C00023463946B446BDE8F0416047194600F051
:1031D00057F80028EED00620BDE8F0812DE9F14F28
:1031E0000D461946DDE90A4BDDE90CA68146174676
:1031F000984600F045F890B1002D3460377109DB36
:103200002C44A24514BF01240624B471002001B04F
:10321000BDE8F08F0235F9D10123B371F6E75445CB
:1032200006D15946484600F02BF808B17771EDE712
:10323000D9F808000368CDE90CA6CDE90A4BDC6992
:103240003A4643462946A44601B0BDE8F04F6047E0
:103250002DE9F04107460C4615461E4600F07DF864
:1032600048B9B86803689F692A4633462146BC4678
:10327000BDE8F0416047BDE8F0817047002070472D
:10328000814208B50ED0406803782A2B0CD04968DB
:103290000B782A2B08BF0131FCF782FFB0FA80F0CF
:1032A000400908BD0120FCE70020FAE70B46014673
:1032B000184600F06FBA7FB500241023CDE9023420
:1032C000036815469E6912686B46CDE90044B04715
:1032D0009DF8043003F00603062B03BF009B2B6010
:1032E0000120204604B070BD009890420CBF06201B
:1032F0000120704710B5034B03600446FFF7BDFF84
:10330000204610BD884F000810B50446FFF7F2FFB5
:103310002046082100F042F8204610BD2DE9F0417A
:103320001F46DDE90834DDF8188098450646154645
:1033300007D10799FFF7A4FF18B165710020BDE818
:10334000F08139463046FFF79BFF0028F6D0012375
:10335000C4F800802571A371F0E738B515461C4606
:10336000FFF78EFF20B10823E36006232560237159
:1033700038BD2DE9F04105460C4616461F46FFF7BD
:103380007FFF48B9032F07D82368324629462046D5
:103390005B69BDE8F0411847BDE8F08100F084B8F2
:1033A0000378472B17D143784E2B14D18378552BB4
:1033B00011D1C378432B0ED10379432B0BD1437921
:1033C0002B2B08D183792B2B05D1C07901288CBFF9
:1033D0000020012070470020704710B5044648B116
:1033E00000F039F82046FFF7DBFF18B154F8140C51
:1033F000FFF78CFEFFF796FE10B50246FFF7D0FFF1
:1034000038B152F8184C104600F025F82046FFF766
:103410008EFE104600F01FF8FFF796FE0378472B4C
:1034200017D143784E2B14D18378552B11D1C37803
:10343000432B0ED10379432B0BD143792B2B08D18E
:1034400083792B2B05D1C07901288CBF0020012066
:1034500070470020704738B50446FFF7D5FB056874
:1034600002462046A4F12001FFF7D8FF28B90DB18C
:10347000FFF758FE1160284638BD54F80C3C002B6D
:10348000B4BFC3F10103013344F80C3C53688D42CF
:1034900003F1FF33536020461CBF44F8105C1160F9
:1034A000656A00F0D9FEE6E700F008B808B5062026
:1034B00000F01EF9012001F0E9FB0000024B01467B
:1034C000186800F083B900BF1800002070B50F4ED7
:1034D0000C463168054611B900F026F930602146E6
:1034E000284600F021F9431C03D14FF0FF34204659
:1034F00070BDC41C24F00304A042F8D0211A284651
:1035000000F012F90130F2D1EFE700BF5C080020B3
:103510002DE9F843CD1C25F0030508350C2D38BFE7
:103520000C25002D064601DBA94204D90C2333608B
:103530000020BDE8F883DFF8D48000F069F8D8F8FF
:1035400000301C4644BB29463046FFF7BFFF431CF2
:10355000044658D1D8F800402746002F43D1002C0C
:103560004BD023683946304604EB030900F0DCF801
:10357000814542D121686D1A29463046FFF7A6FFE2
:1035800001303AD023682B442360D8F800305A68C1
:1035900062BBC8F800700FE02268521B20D40B2ACF
:1035A00017D96119A342256018BF5960636808BF25
:1035B000C8F8001062514B60304600F02FF804F15B
:1035C0000B00231D20F00700C21A1CBF1B1AA350BA
:1035D000AFE76268A3420CBFC8F800205A60EBE76F
:1035E00023466468AEE73C467F68B6E71A465B68E8
:1035F000A342FBD100235360DEE70C233360304647
:1036000000F00CF894E70560D6E700BF60080020E2
:10361000014800F0BDB800BF9C090020014800F03F
:10362000B8B800BF9C09002000B59BB00091049180
:103630006FF000410591029105490391694600F040
:103640006BF9009B00221A701BB05DF804FB00BFF1
:103650000802FFFF13460A46014602480068FFF7CA
:10366000E3BF00BF1800002010B50139034632B196
:1036700011F8014F03F8014B013A002CF7D11A441D
:103680000021934200D110BD03F8011BF9E7024469
:103690000346934200D1704703F8011BF9E71F2945
:1036A00038B505460C4604D9162303604FF0FF30A9
:1036B00038BDC26B12B152F821304BB9284600F028
:1036C00031F8224601462846BDE8384000F018B8D7
:1036D000012B0AD0591C03D1162303600120E7E710
:1036E000002142F82410204698470020E0E700001F
:1036F000024B01461868FFF7D2BF00BF1800002038
:1037000038B5074D00230446084611462B6001F0EA
:10371000A7FA431C02D12B6803B1236038BD00BF58
:10372000A009002001F094BA38B5064D00230446E4
:1037300008462B6001F09CFA431C02D12B6803B1B0
:10374000236038BDA009002070B50D4D0D4C641BE1
:10375000A4100026A64209D10B4D0C4C01F098FA9A
:10376000641BA4100026A64205D170BD55F8043B89
:1037700098470136EEE755F8043B98470136F2E7E3
:103780000C5300080C5300080C5300081453000895
:103790007047704710B504460448134620B10A46E6
:1037A00002202146AFF3008010BD00BF00000000E2
:1037B0000A44914200F1FF3300D1704710B511F86F
:1037C000014B03F8014F9142F9D110BD38B50546C0
:1037D000002941D051F8043C0C1F002BB8BFE4185D
:1037E000FFF716FF1D4A136833B96360146028465B
:1037F000BDE83840FFF712BFA34208D9206821185E
:103800008B4201BF19685B6809182160EDE71A4611
:103810005B680BB1A342FAD911685018A0420BD1D2
:1038200020680144501883421160E0D118685B6839
:10383000536008441060DAE702D90C232B60D6E706
:10384000206821188B4204BF19685B68636004BF5D
:10385000091821605460CAE738BD00BF6008002025
:103860002DE9F0478E681F46BE420B6882460C4623
:1038700090462DD8B1F90C2012F4906F26D06569CE
:10388000096905EB4505A3EB010905EBD5757B1C23
:103890004B446D109D4238BF1D46530527D5294620
:1038A000FFF736FE064660B321694A46FFF780FF00
:1038B000A38923F4906343F08003A38126616561AB
:1038C0004E44A5EB09052660A5603E46BE4200D9E0
:1038D0003E4620683246414600F0E2FAA3689B1B50
:1038E000A3602368334423600020BDE8F0872A46A4
:1038F00000F0A8FA06460028E0D121695046FFF7FB
:1039000065FF0C23CAF80030A38943F04003A3816C
:103910004FF0FF30E9E700002DE9F04F98468B8922
:103920001B069DB007460D46144610D50B6973B9AA
:103930004021FFF7EDFD2860286130B90C233B6082
:103940004FF0FF301DB0BDE8F08F40236B610023C6
:10395000099320238DF82930CDF80C803023DFF82F
:103960009C818DF82A304FF0010923469A4613F8BE
:10397000012B0AB1252AF9D1BAEB040B0BD05B4617
:10398000224629463846FFF76BFF013000F0A7803A
:10399000099A5A4409929AF80030002B00F09F804F
:1039A00000234FF0FF32CDE905230AF1010A049309
:1039B00007938DF853301A935446052214F8011BCF
:1039C0004E48FCF7FDFB049AD8B9D00644BF20232B
:1039D0008DF85330110744BF2B238DF853309AF8DC
:1039E00000302A2B15D0079A544600204FF00A0CBD
:1039F000214611F8013B303B092B4BD9B0B107925E
:103A000014E0A0EB080309FA03F313430493A2465E
:103A1000D2E7039B191D1B680391002BBBBF5B42C0
:103A200042F0020207930793B8BF049223782E2B2B
:103A30000AD163782A2B32D1039B1A1D1B6803928B
:103A400043EAE37302340593DFF8C0A02178032230
:103A50005046FCF7B5FB38B1049BA0EB0A004022AE
:103A6000824013430134049314F8011B24488DF859
:103A700028100622FCF7A4FB002836D0214B1BBBE4
:103A8000039B073323F0070308330393099B334455
:103A900009936AE70CFB02320C460120A8E70023D9
:103AA0000134059319464FF00A0C204610F8012BFB
:103AB000303A092A03D9002BC6D00591C4E70CFB84
:103AC000012104460123F0E703AB00932A460E4B85
:103AD00004A93846AFF30080421C0646D6D1AB8914
:103AE0005B063FF52DAF09982CE703AB00932A4600
:103AF000054B04A9384600F079F8EDE7AC4F000813
:103B0000B64F00080000000061380008B24F0008FE
:103B10002DE9F047164698468A680B69DDF8209033
:103B20009342B8BF1346336091F8432007460C46D2
:103B30000AB1013333602368990642BF3368023308
:103B40003360256815F0060506D104F1190AE3680B
:103B500032689B1AAB4226DC94F843302268003B63
:103B600018BF012392062BD404F143024146384684
:103B7000C84701301ED02368226903F00603042BD6
:103B800002BFE5683368ED1AA3680CBF25EAE57546
:103B900000259342C4BF9B1AED1800261A34B54283
:103BA0001AD1002008E00123524641463846C84752
:103BB000013003D14FF0FF30BDE8F0870135C6E793
:103BC000E1185A1C302081F84300224494F8451033
:103BD00082F843100233C7E70123224641463846A4
:103BE000C8470130E6D00136D9E700002DE9FF478C
:103BF0000F7E0C9E782F914680460C469A4601F126
:103C0000430207D8622F0AD8002F00F0DD80582F1A
:103C100000F0C38004F1420684F842703AE0A7F154
:103C20006303152BF6D801A151F823F0853C000859
:103C3000993C0008153C0008153C0008153C00089C
:103C4000153C0008993C0008153C0008153C00088C
:103C5000153C0008153C0008AF3D0008273D000852
:103C6000673D0008153C0008153C0008D13D0008E0
:103C7000153C0008273D0008153C0008153C0008CD
:103C80006F3D000833681A1D1B68326004F142065C
:103C900084F842300123A8E031682368081D3060B1
:103CA0001E0601D50D6803E05D06FBD5B1F9005095
:103CB0006168002D78DA2D20002984F84300A16086
:103CC0002DDA5E486D420A231646B5FBF3F103FB7D
:103CD0001157C75D06F8017D2F46BB420D46F4D94A
:103CE000082B0BD12368DF0708D523696168994247
:103CF000DEBF302306F8013C06F1FF36921B22613D
:103D0000CDF800A04B4603AA21464046FFF700FF2E
:103D100001306FD14FF0FF3004B0BDE8F08723F0E1
:103D200004032360CDE721683368080653F8045B79
:103D300002D4490648BFADB26F2F4048336014BF6C
:103D40000A230823002184F843106668A660002E29
:103D5000BADB216821F004012160002DB4D1002ECE
:103D6000B2D11646BCE7236843F0200323603448F1
:103D7000782784F84570236831681F0651F8045B82
:103D800002D45F0648BFADB23160D90744BF43F0EB
:103D9000200323601DB11023D4E72848E9E72368F6
:103DA00023F020032360F6E724480A23CDE7336895
:103DB00025686169181D30602E061B6801D51960E1
:103DC00002E06806FBD5198000232361164697E7B9
:103DD00033681A1D32601E68626800213046FCF7A5
:103DE000EFF908B1801B606063682361002384F8E9
:103DF000433085E72369324649464046D047013083
:103E000088D023689B0714D4E068039B9842B8BF0E
:103E1000184681E70123324649464046D0470130E3
:103E20003FF478AF0135E36803995B1AAB42F1DCEC
:103E3000EAE7002504F11906F5E700BFBD4F0008C9
:103E4000CE4F00082DE9F041804615460C4621B9B9
:103E5000BDE8F0411146FFF75BBB2AB9FFF7B6FC9E
:103E600000242046BDE8F08100F034F88542064683
:103E700002D8B5EB500FF4D829464046FFF748FB6F
:103E800007460028ECD0B5422A46214628BF3246D4
:103E9000FFF78EFC21464046FFF798FC3C46E0E7E2
:103EA000884210B501EB020402D98442234607D8A8
:103EB000431EA14208D011F8012B03F8012FF8E7A7
:103EC000024401468A4200D110BD13F8014D02F8A8
:103ED000014DF7E751F8043C181F002BBCBF0B58ED
:103EE000C018704703685A004CBF43F0004323F0EA
:103EF00000431844704700BF2DE9F84349B34F1EF3
:103F0000044615463E464FF0000909EB060101EB59
:103F1000D171491004EBC1084046FFF7E3FF8F421F
:103F200003464FEAC1000FD00830AB42204407D807
:103F3000FFF7D8FF0138A84208D201F10109E4E7F0
:103F4000894506D04E1EE0E7AB42F9D84046BDE8B1
:103F5000F8834FF000084046BDE8F883012807D0F9
:103F6000022807D0044B00280CBF184600207047D9
:103F700002487047024870470D4600081546000881
:103F80001D46000830B5214B83B004468D1E1BB37F
:103F900001A92846AFF3008088B301992A46FFF7AC
:103FA000ABFF014658B3FFF79DFF4B68A064012BA0
:103FB00028D0002B01F104001FDBFFF793FF002343
:103FC00023650368E064002B0DDBFFF78BFF0346DE
:103FD0000020236103B030BD0D4B0E49C91AC91032
:103FE00018460191DAE7C3F30360FFF7B7FF034612
:103FF00028B10020236103B030BD0123E0E7002396
:104000000920E6E700230520E3E700BF00000000E9
:10401000045100080C5300080368DA0710B5044681
:1040200006D49B0700F1480009D5FCF72DF9236859
:10403000590709D51A070ED5DB0613D510BDFCF7B5
:104040001BF923685907F5D404F1D000FCF724F9D3
:1040500023681A07F0D404F5A870FCF725F9236843
:10406000DB06EBD404F5E870BDE81040FCF760B95E
:104070000346006800B11844704700BF704700BF96
:1040800070B504460E46316C2046FFF77BFF0546AF
:1040900088B9326C62612369324621460120984713
:1040A0000828F0D0072806D12846316CFFF7E6FF34
:1040B000301DFCF7D5F8FFDE2DE9F0470D1DD0F8D7
:1040C0000C80D0F81890074614460FCDADF5727DE0
:1040D0000DF10C0CACE80F000FCDACE80F000FCDCC
:1040E000ACE80F0095E80F0002AE4FF0000E8CE830
:1040F0000F00C6F800E020E0336C7B614FF4F072F3
:1041000031467AA8FFF754FB3B697AAA39465046F4
:104110009847889B73642146CDE9006905463B4674
:104120003A460120C047044618BB4FF4F0727AA902
:104130003046FFF73DFB082D19D1316C3846FFF7AB
:1041400021FF09345FFA84FA05460028D4D0B36B06
:1041500073643A46CDE900693B464AF010010120FC
:10416000C04730B928460DF5727DBDE8F087072DB0
:1041700005D0092528460DF5727DBDE8F08720465B
:10418000316CFFF77BFF03A8FCF76AF8F0B5CB6B47
:104190000B6401F1040C0E460546BCE80F00F9B0B3
:1041A00001AC0FC4BCE80F000FC4BCE80F000FC483
:1041B0009CE80F004FF0FF3784E80F00009706E0FF
:1041C0002B696A46294698470828044608D1109961
:1041D0002846FFF7D7FE0028F2D0092079B0F0BDBD
:1041E0006846FFF719FF062CF7D131462846FFF73E
:1041F00047FF00BFC160D96B826119640022194674
:10420000FFF75ABF70B5C66843690B64AEB903695E
:104210000A4604460D46014602209847072805D065
:1042200008280ED129462046FFF72AFF3046296C80
:10423000FFF724FF281DFCF713F80122FFF73CFFCE
:10424000FFDEFFDEC26822B1CA6B0A640022FFF7FC
:1042500033BFFFF79BBF00BF704700BF012910D0DD
:1042600009D883B90F2A0ED800EB8202184653688A
:10427000009A13607047033901298CBF0220012086
:104280007047084670470220704700BF00B585B0F0
:104290000A46002303A900911946FFF7DFFF0398A0
:1042A00005B05DF804FB00BF012910D009D883B91F
:1042B0000F2A0ED8009900EB820209685160184657
:1042C0007047033901298CBF02200120704708463E
:1042D00070470220704700BF10B584B0002303ACC4
:1042E000039200940A461946FFF7DEFF04B010BDA2
:1042F00070B5D36B136402F1040C05460C46BCE8A0
:104300000F00ADF50E7D0DF15C0EAEE80F00BCE8C0
:104310000F00AEE80F00BCE80F00AEE80F009CE80D
:104320000F004FF0FF368EE80F00169610E0FFF7F3
:10433000D3FF214616A8A847034616AA69460820B7
:1043400083B9049B9847052806460CD0092809D054
:1043500026996846FFF716FE03466A460C2116A802
:10436000002BE4D0092616A8FFF756FE30460DF5BF
:104370000E7D70BD2DE9F04F9346CA6C89B00D4695
:1043800052F8041B069200F0030C002B79D00C0CA1
:104390008DF81D400904E4B2059102EB840202216C
:1043A0002F6D8DF81C10BCF1020F08BFAA6B17F01F
:1043B00001070CD005A9584600F0B4FA18B9082036
:1043C00009B0BDE8F08F092009B0BDE8F08F16688C
:1043D000002EEFD000F008010191B246029764462A
:1043E0009946B9F1020F48D0B2F800A0568802F100
:1043F0000408AA6C26F001030F2158469F18FFF706
:1044000045FF874237D82AF001023A44824294BFDE
:1044100000220122730003F002030AF0010A43EABA
:104420000A03012B47D0022B31D0002BCBD114B182
:10443000002A40F0C98008F10402D2F800A0BAF1C5
:10444000000FCED105A95846029F00F06BFA002854
:10445000B9D1002FB3D00F215846FFF717FF0E2117
:1044600002465846FFF738FF674A0F215846FFF7C4
:1044700033FF0720A8E70022CCE7566802F10808BE
:10448000B7E7090205918DF81D30032188E7D8F8B8
:10449000006026F00043002C44D122B1019A002A8A
:1044A0005AD0002B58D0002E01DA08F1040801334D
:1044B00008EB8302C1E7ECB9CAB1D8F80430D8F8E8
:1044C0000020991C4FEAD2723FF47DAF05F15801EC
:1044D0000133049100F08B8008F10400FFF7C8FD60
:1044E00004AB01462846FEF707FB002857D108F128
:1044F0000802A2E70D215846FFF7C8FE2B6A834247
:10450000F5D1AB6A9845F2D14046FFF7EBFC0F219D
:1045100002465846FFF7E0FE2A4600215846FFF7BC
:10452000DBFEA6E70D2158460393FFF7AFFE2A6A8C
:10453000039B8242B7D1AA6A9045B4D100270422D6
:10454000C5E90B724244AB626A63D8F80020BA42F4
:1045500055DB01220292AAE7039408F1040A00261F
:1045600005F158071C460DE050460497FFF780FD03
:104570000022014604AB284601360AF1040AFEF780
:10458000BBFAE0B9A642EFD10D215846FFF77EFEF7
:10459000049BC5F82880C5E90803062014E70446F3
:1045A0000D215846FFF772FE049E2862022C04BFBC
:1045B000EE6205F12C06C5E90968062004E72346EA
:1045C000D8F80060039C6EE74046FFF78BFC08F1CB
:1045D00004020446AA632846FEF7DEFA00283FF4E8
:1045E000F2AE22460F215846FFF776FE41E70C4611
:1045F00058460D21FFF74AFE26462862DBE7581C85
:1046000008EB800081E700BFF93300080023FFF7C3
:10461000B1BE00BF0123FFF7ADBE00BF0223FFF70D
:10462000A9BE00BF2DE9F0430646C3B015461C469F
:10463000042900F2D180DFE801F0AC51CF2A030059
:10464000002C40F0C980102A00F2C6800368DC0606
:1046500000F1E78020AF3846FBF774FEB46B3946B3
:1046600000234FF0010C0CFA03F22A42204603F11A
:10467000010303D050F8042B0A600446042B01F117
:104680000401F0D1B4633846FBF752FE99E0032CE5
:1046900040F0A28094B204EB1243102B4FEA124573
:1046A00000F29A8003681F0700F1C38020AF3846EC
:1046B000FBF71CFEB26B07EBC50154B10B46D01AD9
:1046C00001EBC401E4001D5843F8045B8B42FAD1AE
:1046D0002244B2633846FBF7E7FD72E0012C4FEA53
:1046E000124895B271D0052C76D108EB0509B9F1C5
:1046F000200F71D8B8F10F0F72D8B9F1100F0368FD
:1047000000F29F80D90708D523F00103304643F01B
:10471000020340F8483BFBF7BBFD20AF3846FBF7F0
:10472000B7FDB36B002D00F0B9806D006A1E07EB7A
:10473000C80100250132043903EB820253F8040B4F
:1047400041F8040F9342F9D1002D00F0A1804146B9
:10475000102938BF10216B0010396F46013B07EB61
:10476000C1010133043902EB830352F8040B41F811
:10477000040F9A42F9D1012C00F08880B8F10F0F94
:10478000B26302D820A8FBF77FFD3846FBF784FD13
:1047900017E00CBB806B23461FFA82FC0124371DF7
:1047A00004FA03F111EA0C0F024604D052F8041B7C
:1047B00047F8231010460133102BF1D1AC0400D47C
:1047C000B063002043B0BDE8F08308EB0503102B75
:1047D00002D8B8F1100F14D1022043B0BDE8F08325
:1047E000002DEED003685A075CD46F463846FBF7BD
:1047F00057FDB26B6B00A8F11001013B07EBC10143
:10480000AFE70368DA0759D420AF3846FBF738FD25
:10481000B36B002D89D10433B3633846FBF72CFD0D
:10482000CFE723F01003036000F5E870FBF78AFD83
:1048300010E723F00803036000F5A870FBF756FDAE
:1048400034E7D90708D523F0010343F0020340F809
:10485000483BFBF71DFD3368580706D5304623F06B
:10486000040340F8D03BFBF71BFD20AF3846FBF7B5
:104870000FFD6846FBF714FDC8F110025200B36B40
:10488000A9F11005013A07EBC80153E720AFC2E7D1
:10489000012CC0D0B8F10F0FB36392D83846FBF7A4
:1048A000F3FC8EE723F0040340F8D03B6F46FBF7A0
:1048B000F7FC3846FBF7F4FCB26B9BE7304623F07D
:1048C000030340F8483BFBF7DBFC9DE7027A034615
:1048D0007AB9427AA2B14168013A10B442720868CA
:1048E00003220C1D1A7202025C60000E10BC1A60DA
:1048F00070470068013A1A7202021A60000E70478F
:10490000B020704700B585B0002303AA0092194675
:104910000C22FFF7A3FC039805B05DF804FB00BF71
:10492000FFF7F0BF2DE9F043064685B00D464FF086
:1049300000082846FFF7CAFFB028044600F0DA80D6
:10494000070646D500F0F003802B5ED0B02B73D065
:104950001BD8902B00F09B80A02B12D1C34303F0F7
:1049600007034FF47F621A41010702F47F6201D509
:1049700042F48042002319463046FFF753FE0028D8
:10498000D7D0092005B0BDE8F083C02B6DD1C62873
:1049900000F09380C72800F0B28000F0F803C02B2D
:1049A00000F0D280C82800F0DD80C928E9D128466F
:1049B000FFF78CFF020300F00F0002F470220130B9
:1049C0000243012105233046FFF72CFE0028B0D01A
:1049D000D7E78300DBB21F1D0DF10C090023194638
:1049E000CDF800900D223046FFF738FC039BCDF840
:1049F000009060064CBFDF1BFF1800230D221946F4
:104A000030460397FFF750FC93E72846FFF75EFF19
:104A100024022043B0F5004FB3D004010023A2B21A
:104A200019463046FFF7FEFD0028AAD114F4004FC6
:104A300018BF4FF001087CE7B12851D0B22800F030
:104A4000AD80B3286DD000F0FC03B42B99D000F0FA
:104A500007020132012342F4002219463046FFF7D3
:104A6000E1FD00283FF465AF8BE700F0F803D02BA1
:104A700087D100F007020132052342F40022012110
:104A80003046FFF7CFFD00283FF453AF79E700F041
:104A90000D030D2B3FF475AF03AF002300F00F02A1
:104AA000194600973046FFF7D9FB002300970D22E7
:104AB00019463046FFF7F8FB3BE72846FFF706FFAD
:104AC000020300F00F00013002F4702203230243BE
:104AD00019463046FFF7A6FD00283FF42AAF50E7FD
:104AE0002846FFF7F3FE431EDBB20E2B02467FF68D
:104AF00041AF46E7B8F1000F40D0002042E728461A
:104B0000FFF7E4FE431EDBB20E2B02463FF639AF41
:104B1000002304213046FFF785FD00283FF409AF4C
:104B20002FE72846FFF7D2FE020300F00F00013006
:104B300002F470220123024319463046FFF772FD4A
:104B400000283FF4F6AE1CE700F00F020132032309
:104B500042F4202219463046FFF764FD00283FF456
:104B6000E8AE0EE72846FFF7B1FE00F0F00200F0D5
:104B70000F031032013343EA023222E703AC43460B
:104B800041460E2200943046FFF768FB00944346EE
:104B90000F2241463046FFF787FBAEE700230DF1B9
:104BA0000C090D221946CDF800903046FFF756FB50
:104BB0002846FFF78BFE0206039C4FF002070BD539
:104BC00000F07F00B840044428460394FFF77EFEBF
:104BD000030607F10707F3D400FA07F204F501749E
:104BE000224400230392CDF800900D22194630464E
:104BF000FFF75AFB9DE600BF10B5C26C536884B046
:104C00004FF0030C08321C0208461B0E01A9019448
:104C100002928DF80CC08DF80D30FFF783FE04B0C2
:104C200010BD00BF08B5FFF77BFE806C08BD00BF5C
:104C300008B5FFF775FEC06CC379023300EB830043
:104C400008BD00BF08B5FEF731FC08B5FFF7FAFF55
:104C5000024B58221A604FF0FF307047A009002025
:104C6000024B58221A604FF0FF307047A009002015
:104C7000044A05491368002B08BF0B46184410600E
:104C800018467047A4090020A8090020FEE700BFCD
:104C9000F8B500BFF8BC08BC9E467047F8B500BF29
:084CA000F8BC08BC9E467047F9
:104CA800DEADBEBEEF0001024D657373616765201E
:104CB80072656365697665640D0A00004D657373F6
:104CC8006167652069643A2030782558200D0A000C
:104CD8004D657373616765206C656E6774683A200B
:104CE80025640D0A000000004D6573736167652037
:104CF800636F6E74656E74733A20000030782530E7
:104D0800325820000D0A0D0A000000005374617229
:104D180074696E672043414E2074657374696E67C9
:104D28000D0A00004661696C656420746F20636F2A
:104D38006E6E65637420746F207468652043414EFD
:104D4800206E6574776F726B0D0A00004661696C9E
:104D5800656420746F207472616E736D6974206D60
:104D68006573736167650D0A0000000000000000AC
:104D7800000000000000000000000000000000002B
:104D8800000000000000000000000000000000001B
:104D98000000000055070008310800084108000815
:104DA800DD090008E70600081B070008496E766160
:104DB8006C69642054582050696E0000496E766111
:104DC8006C696420506F7274204944000000000030
:104DD80000000000D90C0008DF0C00080F0D0008C7
:104DE800E70C0008F10C0008190D0008430D000835
:104DF800690D0008990D0008FB0C0008050D000856
:104E0800350D00088B0D00080000000000000000B0
:104E1800000000000000000000000000000000008A
:104E2800000000000000000000000000000000007A
:104E3800000000000000000000000000000000006A
:104E4800000000000102030405060708090A0B0C0C
:104E58000D0E0F1002030405060708090A0B0C0DB6
:104E68000E0F1010000000000102030400000000F3
:104E78000000000001020304060708094E31305FF4
:104E88005F637878616269763131355F5F666F722A
:104E98006365645F756E77696E644500884F0008C6
:104EA800844E00084E31305F5F63787861626976BE
:104EB8003131395F5F666F726569676E5F65786308
:104EC800657074696F6E4500884F0008AC4E000825
:104ED8004E31305F5F637878616269763132305F76
:104EE8005F73695F636C6173735F747970655F6921
:104EF8006E666F4500000000144F0008D84E000889
:104F0800744F000800000000004F000879310008C5
:104F18008D3100087D3200087D32000873330008A7
:104F2800B732000851320008DD310008A13100080D
:104F3800537439747970655F696E666F000000009C
:104F4800884F0008384F00084E31305F5F6378782B
:104F5800616269763131375F5F636C6173735F7467
:104F68007970655F696E666F45000000144F000830
:104F7800504F0008484F000800000000744F000818
:104F8800F5320008093300087D3200087D32000838
:104F980073330008B73200085B3300081D3300087C
:104FA800E9320008232D302B2000686C4C00656620
:104FB8006745464700303132333435363738394162
:104FC8004243444546003031323334353637383978
:084FD80061626364656600007C
:104FE00008B10181B0B0008400000000F1DDFF7F56
:104FF000B0B0A800FFFF01082A0436003C040000FE
:10500000DDDDFF7FB0A90200FFFF010832043E0092
:105010004404000008B10181B0B000840000000029
:1050200008B10181B0B000840000000008B1018126
:10503000B0B000840000000008B10181B0B000846D
:105040000000000008B10181B0B000840000000041
:1050500008B10181B0B000840000000008B10181F6
:10506000B0B000840000000008B10181B0B000843D
:105070000000000008B10181B0B000840000000011
:1050800008B10181B0B000840000000008B10181C6
:10509000B0B000840000000008B10181B0B000840D
:1050A0000000000008B10181B0B0008400000000E1
:1050B00008B10181B0B000840000000008B1018196
:1050C000B0B000840000000008B10181B0B00084DD
:1050D0000000000008B10181B0B0008400000000B1
:1050E000A8340181B0B00EB10000000008B1018108
:1050F000B0B000840000000008B10181B0B00084AD
:0451000000000000AB
:105104008CB0FF7F010000008CB3FF7FAB08B1803F
:105114000CB4FF7FC8FEFF7F0CB4FF7FCCFEFF7F83
:105124004CB4FF7FD8FEFF7F94B4FF7FB0A90C80FE
:105134002CB5FF7FB0A8158088B5FF7F0100000063
:10514400A2B5FF7F00840A8008B6FF7FB0A90C8057
:10515400DCB6FF7FBCFEFF7FE4B6FF7FB0AB0A8006
:1051640088B7FF7FB8FEFF7F90B7FF7FBCFEFF7F4D
:105174009EB7FF7FAB08B180D4B7FF7FB0AA0B8086
:105184001CB8FF7FB0B0A88050B8FF7FAB08B180D7
:105194007EB8FF7FB0B0A880DAB8FF7F98FEFF7FAB
:1051A400F0B8FF7F0084108048B9FF7F94FEFF7F32
:1051B4004AB9FF7F98FEFF7F4CB9FF7F9CFEFF7FBB
:1051C4004EB9FF7FA0FEFF7F50B9FF7FA4FEFF7F93
:1051D40052B9FF7FA8FEFF7F70B9FF7FACFEFF7F4F
:1051E4009CB9FF7FB0FEFF7FC0B9FF7FB0AB0680E4
:1051F400E4BAFF7F01000000FEBAFF7FA4FEFF7F38
:1052040000BBFF7FA8FEFF7F02BBFF7FACFEFF7FDA
:1052140004BBFF7F0084028018BBFF7FA8FEFF7FD2
:105224001EBBFF7FB0A819803CBBFF7FB0A80180E4
:1052340056BBFF7F9CFEFF7F5CBBFF7FA0FEFF7F12
:1052440090BBFF7FB0AC0D80E4BCFF7F0100000089
:1052540044BDFF7FB0B0A88050BDFF7F01000000B7
:1052640020EDFF7FB0A90280ACEDFF7FB0B0A88035
:10527400FCEDFF7F0100000004EEFF7FB0B0AA80C8
:1052840034EEFF7FAE71B28000EFFF7FAB3F38801A
:1052940060EFFF7F0100000068EFFF7FB0B0AA80DD
:1052A400A0EFFF7F0100000044F0FF7FAA0DB28051
:1052B400C0F0FF7FB0AF088050F3FF7F0100000013
:1052C40060F3FF7FAD3F028000F6FF7F0100000026
:1052D40030F6FF7F0084048044F6FF7F0100000065
:1052E40040F6FF7FB0AD04800CF9FF7FB0A80380C7
:1052F40030F9FF7FF4FDFF7F34F9FF7FF8FDFF7F76
:0853040040F9FF7F01000000E9
:08530C0075040008112C0008D3
:045314004D0400083C
:1053180000000000010000001000000000127A00E8
:1053280025310008AD3400081C00002000000000F2
:1053380064080020CC080020340900200000000088
:105348000000000000000000000000000000000055
:105358000000000000000000000000000000000045
:105368000000000000000000000000000000000035
:0853780000000000000000002D
:0400000508002A6164
:00000001FF
